:1000000000308A0045280000B60108303602031887
:1000100022280310B50D03180F2887121028871601
:10002000A61226086700A61126086700871500009B
:100030000000000000000000A611260867008711DC
:10004000B60A052800348316051183120515831698
:1000500005118312051100343208B400B5013408CB
:10006000B50004203108B500042023203008B40076
:10007000B5013408B50004202F08B500042033086A
:10008000B500042023208A11612884011F308305D4
:10009000A501FF30A6000230AA001F30A900AC0164
:1000A0000E30AB000130AE004130AD002A08B00088
:1000B0002908AF002E08B2002D08B1002B08B300AC
:0600C0002C2861286300FA
:00000001FF
;PIC16C63
